:100000000C947F020C94C6020C94C6020C94C60297
:100010000C94C6020C94C6020C94C6020C94C60240
:100020000C94C6020C94C6020C94C6020C94841B59
:100030000C94331C0C943D140C94C6020C94C60210
:100040000C94C6020C94C6020C94C6020C94A5141F
:100050000C94C6020C94C6020C94C6020C94C60200
:100060000C94C6020C94C6020C94C6020C94C602F0
:100070000C94C60215041704220419041B041D0461
:100080001F04210424042604280433042A042C0415
:100090002E04300432043504F509F509270A270A2D
:1000A000610A7F0AE50BE50BC10AE50B640B640BE3
:1000B000D50BE50BE50BDE0B710B710B710B710BA7
:1000C000710B710B710B710B710B710B710B710B50
:1000D000710B710B710B710B820B900B970B9E0BBD
:1000E000A80B760C760C880C880C7F0C880C880C7E
:1000F000880C760C760C840C880C880C840CA01C64
:10010000C71CBF1DC71CBF1D131D361DBF1D8D1D68
:100110009C1D29001E001F0020002100220000005D
:100120000000230024002500260027002A002B00C1
:1001300014001A00080015001700000000001C0041
:1001400018000C00120013004C00350004001600CB
:10015000070009000A00000000000B000D000E005F
:100160000F0033003400E1001D001B0006001900E1
:1001700005000000000011001000360037003800B4
:100180002800E000E300E200DC5CDA5C2C00000008
:1001900000002C00DB5C5000510052004F00350283
:1001A0001E021F0220022102220200000000230280
:1001B00024022502260227022A0035021E021F02FF
:1001C0002002210222020000000023022402250254
:1001D000260227024C004C003A003B003C003D0048
:1001E0003E00000000003F002D022E022F023002D0
:1001F0003102E100400041004200430044000000A1
:10020000000045003202640201000100010001000B
:1002100001000100010001000100000000000100D8
:100220000100AB00AA00A900AE0035001E001F00AF
:1002300020002100220000000000230024002500EF
:10024000260027002A0035001E001F002000210084
:1002500022000000000023002400250026002700C3
:100260004C004C003A003B003C003D003E000000CA
:1002700000003F002D002E002F0030003100010053
:1002800040004100420043004400000000004500DF
:1002900032006400010001000100010001000100C2
:1002A0000100010001000000000001000100AB009E
:1002B000AA00A900AE003A003B003C003D003E0011
:1002C0003F000000000040004100420043004400A5
:1002D00045000100005C0100010001000100000078
:1002E0000000010001000100010001004C000100BC
:1002F000010001001A5C1B5C01000000000001000D
:1003000001000100010001000100010001000100E5
:1003100001000100010000000000010001000100D7
:100320004A004900E5000100010001000100010050
:1003300001000000000001000100010001000100B7
:1003400001000403300000001403740065006C0019
:100350006F007000680061007300650000001E03FC
:1003600053006F0075007400680070006100770032
:10037000440065007300690067006E00000004031C
:10038000090409026D00040100A0FA09040000013B
:10039000030101000921110100012240000705812C
:1003A0000308000A090401000103010200092111E8
:1003B000010001224D000705820308000A0904021A
:1003C000000103000000092111010001223600078D
:1003D00005830308000A0904030001030000000963
:1003E00021110100012239000705840320000112B8
:1003F00001100100000008EDFE6060010001020331
:100400000105010906A101050719E029E7150025E5
:1004100001950875018102050819012905950575E1
:100420000191029501750391010507190029F7153E
:1004300000250195F875018102C005010980A1011F
:1004400085021601002603001A81002A8300751018
:1004500095018100C0050C0901A101850316010069
:10046000269C021A01002A9C02751095018100C089
:1004700005010902A1010901A100050919012905C8
:10048000150025019505750181029501750381010E
:100490000501093009311581257F9502750881060E
:1004A00009381581257F950175088106050C0A38E4
:1004B000021581257F950175088106C0C0050109D7
:1004C00006A101050719E029E71500250195087522
:1004D0000181029501750881010508190129059519
:1004E0000575019102950175039101050719002910
:1004F000FF150026FF00950675088100C000112435
:100500001FBECFEFD4E0DEBFCDBF04B603FE27C0D1
:100510008091320290913302A0913402B091350261
:100520008730904BA740B04BD1F41092320210921A
:100530003302109234021092350214BE84B7877FC2
:1005400084BF0FB6F894A89580916000886180936D
:100550006000109260000FBEE0E0F8E3099511E042
:10056000A0E0B1E0E6EEFCE302C005900D92A832F7
:10057000B107D9F722E0A8E2B1E001C01D92A23391
:10058000B207E1F70E94D1180C94711E0C94000080
:1005900008950C94C8020C94C9020C9458030C944E
:1005A000C304CF93DF93CDB7DEB72B970FB6F89484
:1005B000DEBF0FBECDBF1092CC001092CD0088E1FF
:1005C0008093C90086E08093CA0083E78093CE00C1
:1005D000FE0131968BE0DF011D928A95E9F7CE018D
:1005E0000C96DF0140E050E0BA012091C80027FDE1
:1005F0000AC04F5F5F4F6F4F7F4F413127E2520775
:100600006105710590F32091CE002D93A817B907CD
:1006100061F78B85803EA1F4A8E2B1E09E01255FE1
:100620003F4F818190E09695982F882797958795E1
:100630004081842B8D939D933296E217F30789F7BF
:100640000E94C50481E02B960FB6F894DEBF0FBE62
:10065000CDBFDF91CF910895E82FF0E0EE0FFF1F9F
:10066000E85DFE4F8081918108950895CF93FB014D
:100670008B3D2CE5920751F08C3D2CE5920749F01B
:100680008A3D9C4589F4C28181E005C0C28182E037
:1006900002C0C28183E0CC2321F00E94D010C0E0D0
:1006A00004C00E94F11001C0C1E08C2FCF910895C9
:1006B000089581E008950C9436030E94620C2FEF98
:1006C00084E39CE0215080409040E1F700C00000AE
:1006D00087E797E790930108809300080C94CB1468
:1006E000FF920F931F93CF93DF938C01FC01C08186
:1006F000D18180915801811113C08281882349F0F2
:10070000CE010E94CE11F82E682FCE010E946E11EC
:1007100004C0CE010E949F11F82EBE018F2D04C08F
:10072000CE010E94CE11BE010E94D004EC01B8019E
:100730000E945B03882309F41FC1B801CE010E9407
:100740003F07882309F418C1C531FCE5DF0799F597
:100750000E94C512982FF8018281209100013091EA
:100760000101882379F09A7A81E009F480E080938E
:100770003201911102C069E201C065E3C9010E9422
:10078000D5130AC080913201811102C069E201C013
:1007900065E3C9010E94E0130E94081381E0809381
:1007A000370180933801C801DF91CF911F910F91DC
:1007B000FF900C945903C6318CE5D80708F071C03E
:1007C000C130ECE5DE0759F4F8018281882309F491
:1007D000D3C08091EF0181608093EF01CDC0C23022
:1007E000FCE5DF0708F451C0F80182818823D9F2C3
:1007F0000E945C13811102C00E9442130E946F1379
:1008000090E09093240280932302FE01E350FC4584
:10081000E231F10530F4E65CFF4F809123020C9445
:10082000211E80912302816027C0826025C08460E0
:1008300023C0806121C080621FC080641DC08068A9
:100840001BC08460886018C08E7F16C08D7F14C066
:100850008B7F12C08F7E10C08F7D0EC08F7B0CC02F
:100860008F770AC08B7F877F07C087FB222720F9FD
:1008700091E0922790FB87F98093230280912302D5
:100880000E9473130E94620C77C0C115DC4509F009
:1008900085CFF8018281882309F46EC00E945D0330
:1008A0006BC0C53DECE5DE0739F5F8018281882390
:1008B00061F0109238010E946F149093360180937A
:1008C000350180E20E94B20957C080913801811140
:1008D0000FC080913501909136010E947B14883CB5
:1008E000910530F487E20E94E30887E20E948609BE
:1008F00080E20E94B90940C0C63DFCE5DF0738F53B
:10090000C43DDC4509F04ACFF8018281882351F0CB
:10091000109237010E946F14909334018093330139
:1009200082E0D0CF8091370181110FC080913301D7
:10093000909134010E947B14883C910530F486E24A
:100940000E94E30886E20E94860982E0D2CFC83D79
:10095000ECE5DE0731F4F8018281882369F080E05C
:1009600009C0C93DDC4509F019CFF801828188230F
:1009700019F082E00E94691980E0DF91CF911F9108
:100980000F91FF9008950C94CB020C94CD02089522
:100990000C94C7040C94C80480E090E00895089576
:1009A000382F262F872F90E06EE070E00E94FC1D0C
:1009B000FC01832F90E066E470E00E94FC1D8E0F26
:1009C0009F1FFC01E20FF11DEE0FFF1FEE5EFE4FB9
:1009D000859194910895880F991FFC01EE5BFC4F5F
:1009E000859194910895CF93DF930E94D0040E9443
:1009F0009606EC0181159044C0F5C11580E3D80737
:100A000008F0E5C0C03ED105D8F4C03CD10508F0DF
:100A100072C0C83AD10578F4C53AD10508F06FC064
:100A2000C130D10509F47EC108F435C1C430D10507
:100A300008F078C130C1CD3BD10508F46BC02BC1A3
:100A4000CF3FD10509F048F4C03FD10508F0B9C047
:100A5000C83ED10508F466C11EC1C11520E2D20707
:100A600008F460C1CE019F70AEC0C11584E5D807FF
:100A7000D8F4C11523E5D20708F0EAC0C11581E515
:100A8000D80740F4C11520E5D20708F0AAC0DF70EE
:100A9000D06A48C1C11582E5D80708F0C1C0DC2F73
:100AA000CC27C16FD06A3EC1C11526E5D20750F4EC
:100AB000C11585E5D80708F0E3C0DC2FCC27C46F4B
:100AC000D06A30C1C11528E5D20708F4E4C0C115C9
:100AD00089E5D80708F4DAC0CE0190568115904216
:100AE00008F0D9C08D2F8F710E941207DD27D062C8
:100AF0008F71D82B17C1CE01805C910964C0C53AB3
:100B0000D10509F4CBC0C63AD10509F0CAC0C2E884
:100B1000D0E408C1C83AD10509F4C6C0C93AD10524
:100B200009F4C5C0CA3AD10509F4C4C0CB3AD1050D
:100B300009F4C3C0CC3AD10509F4C2C0CB3BD105FE
:100B400009F4C1C0CC3BD10509F4C0C0CD3AD105F0
:100B500009F4BFC0C03BD10509F4BEC0CE3AD105EF
:100B600009F4BDC0CF3AD10509F4BCC0C13BD105E1
:100B700009F4BBC0C23BD10509F4BAC0C33BD105DF
:100B800009F4B9C0C43BD10509F4B8C0C53BD105CF
:100B900009F4B7C0C63BD10509F4B6C0C73BD105BF
:100BA00009F4B5C0C83BD10509F4B4C0C93BD105AF
:100BB00009F4B3C0CA3BD10509F4B2C0C0E0D4E423
:100BC000B1C0D065AFC00E94EB04EC01ABC0CE0158
:100BD0009927D3FF03C0EC01D86CA4C0EC01D06C02
:100BE000A1C0CE0174E0969587957A95E1F7282FFC
:100BF00023703C2F337081E090E002C0880F991F72
:100C00003A95E2F79C68922BCF70C695C695D0E0D6
:100C1000E5E0CC0FDD1FEA95E1F7C82BD92B82C0A8
:100C2000CE018370992721E030E002C0220F331FEC
:100C30008A95E2F78C2F86958695C82FD0E055E0EF
:100C4000CC0FDD1F5A95E1F7C22BD32BDC686AC0AD
:100C5000CE018370992721E030E002C0220F331FBC
:100C60008A95E2F78C2F86958695C82FD0E045E0CF
:100C7000CC0FDD1F4A95E1F7C22BD32BDA6852C0A7
:100C8000CF71DD27DC2FCC27D0624CC0DC2FCC27E6
:100C9000C06FD06A47C0C0E0D0E044C0C1E8D0E433
:100CA00041C0C3E8D0E43EC0C2EED4E43BC0C9EECC
:100CB000D4E438C0CAEED4E435C0C5EBD4E432C0C5
:100CC000C6EBD4E42FC0C3EBD4E42CC0C4EBD4E413
:100CD00029C0C7EBD4E426C0CCECD4E423C0CDECCF
:100CE000D4E420C0C3E8D5E41DC0CAE8D5E41AC0E6
:100CF000C2E9D5E417C0C4E9D5E414C0C1E2D6E422
:100D000011C0C3E2D6E40EC0C4E2D6E40BC0C5E213
:100D1000D6E408C0C6E2D6E405C0C7E2D6E402C005
:100D2000CAE2D6E4CE01DF91CF91089582389105D1
:100D300049F1B0F48133910509F459C048F489327E
:100D4000910509F44FC08A32910509F455C0089500
:100D50008533910509F441C08933910599F00895CF
:100D6000833E910531F138F4803E910591F0823E49
:100D70009105A9F00895863E910501F1873E910500
:100D800039F108952091230220FD3BC021FD39C097
:100D900008958091230280FF34C089E341C080918F
:100DA000230282FF30C08091230284FD2EC083EE97
:100DB00037C08091230282FD26C0F5CF80912302A7
:100DC00083FF25C08091230284FD1FC087EE28C0C9
:100DD0008091230283FD1BC0F5CF8091230285FD06
:100DE00018C019C08091230285FD15C012C08091E2
:100DF000230286FD12C013C08091230286FD0FC01E
:100E00000CC080EE0DC082EE0BC080E009C086EE03
:100E100007C089E205C085E303C08AE201C081E31F
:100E200090E00895CF93C82F0E946F1390E09093A5
:100E300024028093230282FF0DC09C2F987198306A
:100E400019F4C77FC46006C09C2F9471943011F4CC
:100E5000CB7FC86083FF0DC09C2F9871983119F427
:100E6000C77EC46106C09C2F9471943111F4CB7E6F
:100E7000C86184FDC77E8C2FCF91089508950F938C
:100E80001F93CF93FB012281211102C0C1E041C019
:100E90008C01C0914601C11125C086319C45B1F736
:100EA0000E943E0781E0809346010E946F14909358
:100EB0004501809344011092390110923B01109238
:100EC0003A0110923D0110923C0110923F011092A4
:100ED0003E01109241011092400110924301109284
:100EE000420117C080914401909145010E947B14FA
:100EF000883C910558F690913901E92FF0E0EE0F0A
:100F0000FF1FE65CFE4F118300839F5F90933901C2
:100F1000C0E08C2FCF911F910F91089590934C01B9
:100F200080934B010895E0914B01F0914C01309773
:100F300021F00190F081E02D099480E00895E09186
:100F40004B01F0914C01309721F00280F381E02DAC
:100F500009940895E0914B01F0914C01309721F0F4
:100F60000480F581E02D0994089520914901309184
:100F70004A012817390771F090934A01809349017B
:100F8000E0914B01F0914C01309721F00680F78100
:100F9000E02D0994089520914701309148012817C8
:100FA000390771F09093480180934701E0914B011C
:100FB000F0914C01309721F00084F185E02D0994E7
:100FC000089508950C94E10781E008950E94661445
:100FD0000E94CF020C94DC145F926F927F928F92EA
:100FE0009F92AF92BF92CF92DF92EF92FF920F93B8
:100FF0001F93CF93DF93CDB7DEB72A970FB6F89440
:10100000DEBF0FBECDBF0E94D1020E94E407811156
:1010100011C08FEF89838A831B820E946F148160C5
:10102000782F9D838C8349815A816B818D810E94A9
:10103000A90856C09EE4692E91E0792E00E010E0E8
:1010400088248394912C502E802F0E942C036C01B5
:10105000F301A190B1903F01A826B926A114B104D3
:1010600031F40F5F1F4F0530110569F7D2CF809122
:10107000EF0181FD0E94350380E090E07401082EAD
:1010800002C0EE0CFF1C0A94E2F795012E213F21CD
:10109000232B09F18E835F82CE20DF2081E0CD28D3
:1010A00009F480E088870E946F148160782F9A8706
:1010B00089874E815F8168858A850E94A908000F13
:1010C000111FF801E25BFE4F80819181E826F9262D
:1010D000F182E08205C001968E30910579F6C1CF8C
:1010E0000E9473160E94930790914D018917D9F0C1
:1010F0000E94930780934D012A960FB6F894DEBFA5
:101100000FBECDBFDF91CF911F910F91FF90EF9058
:10111000DF90CF90BF90AF909F908F907F906F9017
:101120005F900C94CA042A960FB6F894DEBF0FBEE7
:10113000CDBFDF91CF911F910F91FF90EF90DF9086
:10114000CF90BF90AF909F908F907F906F905F9067
:101150000895CF93DF93CDB7DEB72B970FB6F894F2
:10116000DEBF0FBECDBF4F83588769877A878B87D5
:10117000DE01119686E0FD0111928A95E9F785E07E
:10118000FE01379601900D928A95E1F70E94681250
:10119000882319F082E00E94A3120E943B12811161
:1011A0000E94011349815A816B817C818D819E81CE
:1011B0000E94300F2B960FB6F894DEBF0FBECDBF46
:1011C000DF91CF910895882309F49FC0682F8CEF99
:1011D000860F813A38F480910001909101010E94BC
:1011E000D5130CC080E2860F883050F4677081E020
:1011F00001C0880F6A95EAF70E94C8120C94081380
:101200008BE5860F833070F4653A29F0663A31F049
:1012100083E890E005C081E890E002C082E890E0B9
:101220000C94B50788E5860F853108F06EC0683AE2
:1012300061F1693A69F16A3A71F16B3A79F16C3AA4
:1012400081F16B3B89F16C3B91F16D3A99F1603B17
:10125000A1F16E3AA9F16F3AB1F1613BB9F1623B8C
:10126000C1F1633BC9F1643BD1F1653BD9F1663B08
:10127000E1F1673BE9F1683BF1F1693BF9F16A3B68
:1012800009F43FC080E090E03EC082EE90E03BC0B9
:1012900089EE90E038C08AEE90E035C085EB90E0B2
:1012A00032C086EB90E02FC083EB90E02CC084EB43
:1012B00090E029C087EB90E026C08CEC90E023C042
:1012C0008DEC90E020C083E891E01DC08AE891E0B9
:1012D0001AC082E991E017C084E991E014C081E26C
:1012E00092E011C083E292E00EC084E292E00BC073
:1012F00085E292E008C086E292E005C087E292E0D3
:1013000002C08AE292E00C94CB070895882349F149
:10131000682F8CEF860F813A38F48091000190910C
:1013200001010E94E0130CC080E2860F883050F467
:10133000677081E001C0880F6A95EAF70E94CE12BB
:101340000C9408138BE5860F833020F480E090E046
:101350000C94B507685A653120F480E090E00C9455
:10136000CB070895882321F00E94C8120C9408131B
:101370000895882321F00E94CE120C94081308953A
:101380008F929F92AF92BF92DF92EF92FF920F9354
:101390001F93CF93DF937C01D62FC72FFC010581CC
:1013A00002950F70128111110E94E5120E94BE1267
:1013B000882379F0112369F080E28D0F883048F09E
:1013C00082E00E94A3120E94BE1291E0D82ED9267C
:1013D00001C0D12CBC2EB2948FE0B8228B2D90E0AE
:1013E000FC01E45BFF4F0C94211E8C2F807FCF709B
:1013F000882311F0C295C07F112399F0CC2309F402
:10140000BFC180E28D0F883010F0D11104C08C2F45
:101410000E94C81203C08C2F0E94D8120E94081389
:10142000AFC18D2F0E948609CC2309F4CEC180E282
:101430008D0F883010F0D11104C08C2F0E94CE1275
:1014400003C08C2F0E94DE120E940813BEC18C2F95
:10145000807FCF70803211F0C295C07FDD2319F0FC
:10146000D130A9F01EC0112351F08C2F002309F4B4
:1014700040C1013009F03DC10E94F812A6C100230D
:1014800019F0013009F4A1C10E94011318C0112301
:1014900021F0063008F099C10EC0053008F095C162
:1014A0000EC0112351F0002331F0F701858180FF38
:1014B00067C18F7085838C2F1CC1011172C18C2F65
:1014C0001EC18C2F86958695837019F0813061F04E
:1014D0007CC1112321F08D2F9C2F937002C080E0DE
:1014E00090E00E94B5077EC1112321F08D2F9C2F23
:1014F000937002C080E090E00E94CB0773C111237B
:10150000F9F0D53F51F0D63F71F0D43FA9F4809166
:101510001D0290911E0281600BC080911D0290916E
:101520001E02826005C080911D0290911E0284609F
:1015300090931E0280931D028D2F0E947B151EC06A
:10154000D53F51F0D63F71F0D43FA9F480911D02F0
:1015500090911E028E7F0BC080911D0290911E0201
:101560008D7F05C080911D0290911E028B7F90930C
:101570001E0280931D028D2F0E94E3150E946816A3
:1015800031C18C2F837009F04CC0111127C12D2F50
:10159000229526952770220F220F6D2F6F70862FB0
:1015A00090E0A0E0B0E04C015D01022E04C0880C88
:1015B000991CAA1CBB1C0A94D2F7D4FF12C08FE05E
:1015C00090E0A0E0B0E004C0880F991FAA1FBB1FE5
:1015D0002A95D2F7BC01CD016095709580959095C4
:1015E00003C060E070E0CB01C695C695C370C23001
:1015F00051F080F4682979298A299B29C13071F03A
:101600000E948410EBC0682979298A299B290E94AD
:101610009610E4C00E948410C501B4010E947210AB
:10162000DDC0112319F08C2F817001C086958823AD
:1016300009F4D4C02D2F229526952770220F220F52
:101640006D2F6F70862F90E0A0E0B0E04C015D013F
:10165000022E04C0880C991CAA1CBB1C0A94D2F749
:10166000D4FF12C08FE090E0A0E0B0E004C0880F8B
:10167000991FAA1FBB1F2A95D2F7BC01CD01609507
:1016800070958095909503C060E070E0CB01C695A1
:10169000C695C370C23051F080F4682979298A292F
:1016A0009B29C13071F00E94491198C0682979299D
:1016B0008A299B290E945B1191C00E944911C50192
:1016C000B4010E9437118AC08D2F90E0FC01E05ECA
:1016D000F109E531F10508F04FC0E45AFF4F0C94D1
:1016E000211EDF708C2F8F71112331F00E94D010DA
:1016F0008D2F0E94B20969C00E94F1108D2F0E94A7
:10170000B90963C0112341F0053008F05EC08C2F89
:101710008F710E94161159C0063008F056C0F7CFDD
:10172000112339F08C2F8F710E94D0104EC01123DD
:10173000C9F38C2F8F710E94F11047C0112329F03B
:101740008C2F8F710E94BB1040C00E94B6103DC00C
:10175000112349F0CF718C2F0E94D01063E08C2FA1
:101760000E94931232C081E00E94A312023068F1FD
:1017700082E00E94A31229C0112331F0002391F2CC
:101780008D2F0E94E30821C0002399F2D93349F438
:10179000FFEF27EE83E0F15020408040E1F700C0EA
:1017A00000008D2F0E94860910C04C2F4F706D2FA6
:1017B000C7010E94CC040E94E30F14C04C2F4F704D
:1017C0006D2FC7010E94CF040DC098E0B91631F00B
:1017D000B91640F086EF8B0D823020F40E949307FB
:1017E0000E94CA04DD20E1F00E94641280FD18C04E
:1017F000F70112820E945E120E94D010C7010E945F
:101800001C0C0E945E12DF91CF911F910F91FF90EF
:10181000EF90DF90BF90AF909F908F900C94F1105D
:10182000DF91CF911F910F91FF90EF90DF90BF90CC
:10183000AF909F908F9008950F931F93CF93DF9356
:10184000EC01988189812B813C81232B31F08F3FE2
:1018500031F481E09F3F19F403C081E001C080E0D2
:1018600080FD13C0CE010E947003882371F068814F
:1018700079818A810E9418128C010E946D110E9448
:101880006010B801CE010E94C009DF91CF911F9175
:101890000F9108950E94E5120E94F51280910001B7
:1018A000909101010E94EB130E9408130E940917F6
:1018B0000E94681680E090E00E94B50780E090E00A
:1018C0000C94CB070E94D5120C944A0C0E940D1266
:1018D000E92FE295EF704E2F50E0FA013297EE308B
:1018E000F105B0F4EF58FF4F0C94211E803F91F0AA
:1018F00018F4803E68F40EC0843F51F40BC0803E63
:1019000048F0813F29F406C093FB882780F90895A9
:1019100080E0089581E00895CF93DF9300D000D058
:101920001F92CDB7DEB70F900F900F900F900F90D2
:10193000DF91CF910895CF93DF9300D000D000D0F6
:10194000CDB7DEB726960FB6F894DEBF0FBECDBF7B
:10195000DF91CF910895CF93DF93C091590180918A
:101960005A01C817A1F0D0E0CE0166E070E00E94F5
:10197000FC1DFC01E55AFE4F40815181628173815B
:10198000848195810E949B0C2196C770E8CFDF91DE
:10199000CF91089540918B0150918C0160918D0100
:1019A00070918E0180918F01909190010C949B0C0D
:1019B0001F93CF93DF938091900182958F7009F0F0
:1019C00066C080918D01882309F461C0209159017E
:1019D00010915A01C0918B01D0918C01E0918E0140
:1019E000F0918F0181E0CF3F09F080E0482F21176F
:1019F00009F44DC0309721F0DF3F21F080E003C0B3
:101A000081E001C0842F30E080FD3DC0C90166E067
:101A100070E00E94FC1DDC01A55ABE4F11968C910E
:101A200011978D1330C08C918C132DC012968C9110
:101A30001297811128C013968D919C9114978E173F
:101A40009F0708F401978E1B9F0B883C9105D8F4E3
:101A5000809190018F70806180939001C90166E050
:101A600070E00E94FC1DFC01E05AFE4F90819F70C7
:101A7000906190838BE891E00E941C0CDF91CF91E4
:101A80001F910C94AB0C2F5F3F4F2770B0CFDF91AD
:101A9000CF911F910895AF92BF92CF92DF92EF92B4
:101AA000FF920F931F93CF93DF93CDB7DEB761976C
:101AB0000FB6F894DEBF0FBECDBF8C0185E0F801F4
:101AC000DE011D9601900D928A95E1F7D8014C91A7
:101AD00011962C9111971296EC9050918B01609178
:101AE0008C0180918E0190918F01009731F06F3FB2
:101AF00031F431E05F3F19F403C031E001C030E060
:101B0000B32FB170BB2E30FD69C1F801C380D48002
:101B1000A0908D01AA2009F4C7C030919001C81689
:101B2000D90628F0D601A81BB90BCD0104C08095B9
:101B300090958C0D9D1DFF24F394883C910588F0B1
:101B4000F12C307F09F0A0C07C2DD98AC88A522F91
:101B50006E2D89890E948C0C8BE891E00E941C0CF0
:101B6000B8C0832F807F09F057C0261314C04513D7
:101B700012C0FE2CE1100FC03F7030613093900115
:101B80000E94CA0C8BE891E00E941C0C809190018D
:101B9000F801858353C1CD2831F02F3F31F481E026
:101BA0004F3F19F403C081E001C080E080FD03C015
:101BB00081E08E2502C080E090E0F82FF170FF2ECA
:101BC00080FF1FC0E091590130915A01E31709F4D9
:101BD00012C1F0E0CF0166E070E00E94FC1DDC0164
:101BE000A55ABE4F11968C911197281307C08C915E
:101BF000481304C012968C91E81203C03196E77026
:101C0000E5CFFE2CEE2009F419C18091900181608E
:101C100080939001F12C12C1261309C0451307C00F
:101C2000E11005C080919001F8018583B1C04D8716
:101C30002E878D859E850E94660C882379F1EE2083
:101C400069F120919001822F82958F7090E0029728
:101C500074F080918B0190918C0198878F83198605
:101C6000DB86CA862C87CE0107960E941C0C86E074
:101C7000F801ABE8B1E001900D928A95E1F70E947E
:101C8000D80C0E94CA0C0DC0261769F14D872E870B
:101C90008D859E850E94660C811139C0C8010E9405
:101CA0001C0CFF24F394CAC0C816D90608F447C018
:101CB000F601E81BF90BCF01883C910508F444C0FC
:101CC000F12C7C2DD98AC88A522F6E2D89890E94C9
:101CD0008C0CEBE8F1E086E0DF011D928A95E9F7D4
:101CE0000E94CA0CABC04513D1CFE110CFCF809179
:101CF0009001F8018583C8010E941C0C86E0EBE886
:101D0000F1E0DF011D928A95E9F7FA2C97C0EE20E9
:101D100029F220919001822F82958F7090E0029796
:101D20000CF4A5CF80918B0190918C019A838983CB
:101D30001B82DD82CC822E83CE01019696CF8095C8
:101D400090958C0D9D1DB8CFFE2CEE2009F4A6CFEA
:101D5000261333C0451331C02091900120FD24C0CB
:101D6000822F82958F70482F50E041155105E1F088
:101D7000D80115962C9315974F30510549F08F5F78
:101D8000982F9295907F822F8F70892B15968C9328
:101D9000C8010E941C0C86E0F801ABE8B1E001909C
:101DA0000D928A95E1F79CCF86E0F801ABE8B1E0AF
:101DB00001900D928A95E1F741C04D872E878D8560
:101DC0009E850E94660C811152CF809190018160A6
:101DD00080939001C8010E941C0C30C0EE2009F4D1
:101DE0005DCF4D872E878D859E850E94660C88234A
:101DF00009F454CF3CCF4D872E878D859E850E9458
:101E00000D12292F22952F70223028F49F7039F05F
:101E1000811105C00BC0243028F49F7049F4805E06
:101E2000883020F0C8010E941C0CBF2CFB2C06C07F
:101E3000D80115969C91907F91F7F8CF8F2D6196E0
:101E40000FB6F894DEBF0FBECDBFDF91CF911F91CB
:101E50000F91FF90EF90DF90CF90BF90AF900895DB
:101E6000CF93DF93CDB7DEB72C970FB6F894DEBFD4
:101E70000FBECDBF4F83588769877A878B879C8732
:101E8000CE0107960E944B0D8823D1F09F81888553
:101E90002A853B85232B31F08F3F31F481E09F3F32
:101EA00019F403C081E001C080E080FD6FC04F8164
:101EB000588569857A858B859C850E949B0C66C0B8
:101EC00086E0FE013796DE01119601900D928A950B
:101ED000E1F7FF81E8856A857B856115710531F041
:101EE000EF3F31F481E0FF3F19F403C081E001C00E
:101EF00080E080FD4BC080915A0190E09C012F5FF3
:101F00003F4F277033274091590150E02417350780
:101F100009F443C0F983EA837D836C8366E070E053
:101F20000E94FC1DDC01A55ABE4F96E0FE013196D1
:101F300001900D929A95E1F720935A010E94AB0C03
:101F400025C090E066E070E00E94FC1D855A9E4F1F
:101F50000E944B0D882371F18091590190E066E059
:101F600070E00E94FC1DFC01E55AFE4F408151814A
:101F700062817381848195810E949B0C80915901BB
:101F800090E00196877099278093590180915901BB
:101F900090915A018913D5CF0DC00E94620C109206
:101FA0005A0110925901EBE8F1E086E0DF011D9241
:101FB0008A95E9F72C960FB6F894DEBF0FBECDBF19
:101FC000DF91CF910895EF92FF920F931F93CF93DC
:101FD000DF938C01892B09F46CC0F12CEE24E3947F
:101FE000E8012196F8018491843740F4843008F0A8
:101FF00051C0813081F0823019F15BC0853709F41E
:1020000044C0A8F19CE7980F903708F052C08F7732
:102010000E94860941C00E5F1F4FFE01849190E22D
:10202000980F983050F48770FE2D01C0FF0F8A95ED
:10203000EAF78F2F0E94E81214C00E94E3082DC017
:102040000E5F1F4FFE01849190E2980F983060F46C
:102050008770FE2D01C0FF0F8A95EAF78F2F0E942F
:10206000EE120E94081319C00E94860916C00E5F66
:102070001F4FFE01C491CC2381F08FE99FE00197AF
:10208000F1F700C00000C150F6CF0E5F1F4FFE01F8
:10209000F49003C00E94E3088E018F2D882309F479
:1020A0009FCFEFE9FFE03197F1F700C000008150CA
:1020B000F5CFDF91CF911F910F91FF90EF90089591
:1020C000089508950C9461100E9462106093C201FB
:1020D0007093C3018093C4019093C5010C944A0C82
:1020E0000C9464100F931F930091C2011091C301CF
:1020F0002091C4013091C501602B712B822B932B51
:102100001F910F910C9464100F931F930091C201C3
:102110001091C3012091C4013091C5016023712346
:10212000822393231F910F910C9464100F931F939C
:102130000091C2011091C3012091C4013091C501E9
:1021400060277127822793271F910F910C946410A9
:102150000C9461100E94A8106093BE017093BF019F
:102160008093C0019093C1010C944A0C60E070E030
:10217000CB010C94AA100F931F9341E050E060E054
:1021800070E08A019B0104C0000F111F221F331F42
:102190008A95D2F7C901B8011F910F910C94AA102A
:1021A0000F931F9341E050E060E070E004C0440FE3
:1021B000551F661F771F8A95D2F78091BE019091B7
:1021C000BF01A091C001B091C1018A019B01082B00
:1021D000192B2A2B3B2BC901B8011F910F910C948D
:1021E000AA100F931F9341E050E060E070E004C03C
:1021F000440F551F661F771F8A95D2F7409550955B
:10220000609570958091BE019091BF01A091C00131
:10221000B091C1018A019B01082319232A233B2382
:10222000C901B8011F910F910C94AA100F931F932D
:1022300041E050E060E070E004C0440F551F661FAD
:10224000771F8A95D2F78091BE019091BF01A0912E
:10225000C001B091C1018A019B01082719272A27D3
:102260003B27C901B8011F910F910C94AA100F933D
:102270001F930091BE011091BF012091C0013091C8
:10228000C101602B712B822B932B1F910F910C940A
:10229000AA100F931F930091BE011091BF012091CE
:1022A000C0013091C10160237123822393231F91C8
:1022B0000F910C94AA100F931F930091BE011091DF
:1022C000BF012091C0013091C10160277127822791
:1022D00093271F910F910C94AA100895282F362F41
:1022E000892F6EE00E94F31D820F982F9770A1E056
:1022F00001C0AA0F9A95EAF786958695869590E093
:1023000065E070E00E94FC1DFC01EF56FE4F40E0CE
:1023100050E0632F70E090819B01042E02C036953F
:1023200027950A94E2F72170219529272A23292746
:1023300021934F5F5F4F4530510569F70895282F6E
:10234000892F6EE00E94F31D820FA82FA77086953B
:102350008695869590E065E070E00E94FC1DBC01CA
:1023600040E050E080E0FB01E40FF51FEF56FE4F28
:10237000208130E00A2E02C0369527950A94E2F7B4
:1023800021703327042E01C0220F0A94EAF7822B12
:102390004F5F5F4F4530510531F70895CF92DF927F
:1023A000EF92FF920F931F93CF93DF938C01C09016
:1023B000BE01D090BF01E090C001F090C1018091BA
:1023C000C2019091C301A091C401B091C501C82A76
:1023D000D92AEA2AFB2ACFE1D0E0D701C6010C2E88
:1023E00004C0B695A795979587950A94D2F780FD76
:1023F00004C0219790F780E007C0B8018C2F0E949D
:10240000F3040197B1F38C2FDF91CF911F910F91BE
:10241000FF90EF90DF90CF900895CF93DF93EC0182
:102420000E94CE11BE010E94F304DF91CF91089566
:102430001F93CF93DF93EB0190915801992321F0E3
:10244000CB010E940D1213C0882349F0CB010E94DA
:10245000CE11182F682FCE010E946E1104C0CB013F
:102460000E949F11182FBE01812F0E94F304DF915B
:10247000CF911F9108950E946F142091C90130914E
:10248000CA018217930750F00E946F142091C9016E
:102490003091CA01821B930B9C010AC00E946F14E9
:1024A0002091C9013091CA0120953095280F391F1C
:1024B00081E0243F314008F480E008958091C80114
:1024C00085958595859508958091C80187700895B3
:1024D0000E946F142091C6013091C70182179307A3
:1024E000A8F00E946F142091C6013091C701821B91
:1024F000930B843F914010F480E013C08091C80199
:1025000082FB882780F991E089270BC00E946F1415
:102510002091C6013091C70120953095820F931FFD
:10252000E8CF81700895982F990F990F990F692B13
:102530006093C8010E94D0100E946F149093C7014D
:102540008093C60108952091C801809582238093CD
:10255000C801982F977089F430E0482F082E000C9E
:10256000550B2417350749F08595859585950E946B
:10257000F1101092C7011092C60108959091C80100
:10258000977081E009F480E008958091EE0108954C
:102590009091EE01892B8093EE01089580959091A2
:1025A000EE0189238093EE0108951092EE010895C3
:1025B0009091ED01892B8093ED0108958095909184
:1025C000ED0189238093ED0108951092ED010895A6
:1025D0009091EC01892B8093EC0108958095909166
:1025E000EC0189238093EC0108951092EC01089589
:1025F0008093CB010E946F149093CA018093C9010C
:1026000008951092CB011092CA011092C901089549
:10261000E0910001F09101018091EE018083E09151
:102620000001F091010190818091ED01892B80835F
:10263000E0910001F091010190818091EC01892BE2
:1026400080838091CB018823B9F00E943B128111D5
:102650000E940113E0910001F091010190818091AD
:10266000CB01892B808380910001909101010E9410
:10267000781381110E940113809100019091010152
:102680000C949F076DEE7EEF80E090E00E945B1E51
:1026900060E082E090E00E94491E60E083E090E00C
:1026A0000E94491E60E084E090E00E94491E60E0C4
:1026B00085E090E00C94491E80E090E00E94431E6B
:1026C00021E08D3E9E4F09F020E0822F089582E0A8
:1026D00090E00C943B1E83E090E00C943B1E84E061
:1026E00090E00C943B1E682F84E090E00C94491E0F
:1026F000FC0131969C01205E3F4F80E09191911149
:102700008F5FE217F307D1F708959C01FC01329621
:102710009FEF80E04191461789F09F3F19F44111E6
:1027200001C0982F8F5F8E31A9F79F3F39F0F901D3
:10273000E90FF11D97FDFA956283089508959C01B4
:10274000225E3F4FFC014281461301C01282019676
:1027500082179307B9F70895262F26952695269573
:102760002F3169F0FC01E20FF11D677021E030E0CC
:1027700001C0220F6A95EAF78181282B21830895F1
:10278000262F2695269526952F3171F0FC01E20F14
:10279000F11D677021E030E001C0220F6A95EAF771
:1027A00020958181282321830895209112012223DD
:1027B00029F02091230227FD0C94AC130C9485136F
:1027C00020911201222329F02091230227FD0C944D
:1027D000C0130C949F13FC01319680961192E81758
:1027E000F907E1F7089580912902843039F11092B8
:1027F000F00120E488E190E00FB6F894A89580936A
:1028000060000FBE2093600080E00E94CA0483B77E
:10281000817F846083BF83B7816083BF789488950C
:1028200083B78E7F83BF0FB6F894A8958091600020
:10283000886180936000109260000FBE0895089533
:102840000C941F14CF930E9420140E94D1020E9466
:102850001F14C0E08C2F0E942C03892B29F4CF5F1A
:10286000C530C1F780E001C081E0CF9108950E949A
:10287000620C0E9493070C94CA041F920F920FB629
:102880000F9211248F939F93AF93BF938091F00188
:10289000811113C080911F0290912002A09121020A
:1028A000B09122024196A11DB11D80931F02909309
:1028B0002002A0932102B0932202BF91AF919F9179
:1028C0008F910F900FBE0F901F90189582E084BDDE
:1028D00093E095BD9AEF97BD80936E0008952FB752
:1028E000F89480911F0290912002A0912102B09152
:1028F00022022FBF0895CF92DF92EF92FF920F93A3
:102900001F932FB7F89440911F02509120026091BD
:102910002102709122022FBF6A017B01EE24FF2465
:102920008C0120E030E0C016D106E206F30610F478
:10293000415051099A01281B390BC9011F910F9170
:10294000FF90EF90DF90CF90089578941F920F92B0
:102950000FB60F9211248F939F93AF93BF938091E3
:102960001F0290912002A0912102B09122020196B3
:10297000A11DB11D80931F0290932002A0932102FC
:10298000B0932202BF91AF919F918F910F900FBE94
:102990000F901F90189587E797E790930108809311
:1029A00000089AE088E10FB6F894A895809360003B
:1029B0000FBE90936000FFCF0E945C13811102C094
:1029C0000E9442130E9467138093EF010E946F13CD
:1029D00090E090932402809323020E946B13682F4F
:1029E00070E080E090E00C9470108091F30180FF23
:1029F0000CC08091050190E065E070E00E94FC1D34
:102A000095958795959587952EC081FF0AC08091F1
:102A1000050190E065E070E00E94FC1D95958795AA
:102A200022C082FF08C08091050190E065E070E05F
:102A30000E94FC1D18C02091F4012223D9F030918E
:102A40000401231780F78091050190E065E070E0B4
:102A50000E94FC1D622F70E00E94FC1D632F70E03D
:102A60000E940D1ECB018038910538F4009739F48F
:102A700081E005C085E090E008958FE7089508950E
:102A80008091F30180FF08C06091030170E07595AB
:102A900067957595679523C081FF06C06091030116
:102AA00070E0759567951BC082FF04C060910301BB
:102AB00070E012C06091F4016623A9F02091020138
:102AC0006217A0F78091030170E090E00E94FC1D66
:102AD000622F70E00E940D1E6038710540F4611590
:102AE000710519F406C061E070E0862F08958FE744
:102AF000089581E00895803F21F40E94F5148195A6
:102B000004C0813F29F40E94F5148093F7010895D1
:102B1000823F21F40E94F514819504C0833F29F47B
:102B20000E94F5148093F6010895893F19F40E94DC
:102B3000401505C08A3F31F40E944015819580936D
:102B4000F80108958B3F21F40E944015819504C03F
:102B50008C3F29F40E9440158093F9010895843F29
:102B600021F48091F501816017C0853F21F48091A7
:102B7000F501826011C0863F21F48091F5018460E7
:102B80000BC0873F21F48091F501886005C0883F24
:102B900031F48091F50180618093F50108958D3FB6
:102BA00021F48091F30181600BC08E3F21F480916C
:102BB000F301826005C08F3F29F48091F3018460A6
:102BC0008093F3010895803F39F48091F70187FFE6
:102BD0006CC01092F70169C0813F29F48091F70120
:102BE0001816BCF362C09091F601823F29F497FF5A
:102BF0005CC01092F60159C0833F19F41916CCF34A
:102C000054C0893F41F48091F80118160CF04DC072
:102C10001092F8014AC08A3F29F48091F80187FF99
:102C200044C0F6CF8B3F39F48091F90187FF3DC056
:102C30001092F9013AC08C3F29F48091F9011816DD
:102C4000BCF333C0843F21F48091F5018E7F17C01F
:102C5000853F21F48091F5018D7F11C0863F21F4DD
:102C60008091F5018B7F0BC0873F21F48091F501A6
:102C7000877F05C0883F31F48091F5018F7E809376
:102C8000F50113C08D3F21F48091F3018E7F0BC0BD
:102C90008E3F21F48091F3018D7F05C08F3F29F491
:102CA0008091F3018B7F8093F3018091F601811174
:102CB0000EC08091F70181110AC08091F801811145
:102CC00006C08091F901811102C01092F4010895AB
:102CD00085EF91E00E94AA070E946F149093F20181
:102CE0008093F10108951F93CF93DF938091F101B9
:102CF0009091F2010E947B14FC012091F4012223A7
:102D000021F08091060190E007C08091070190E0DA
:102D10006AE070E00E94FC1DE817F90708F475C02E
:102D20008091F601C091F701D091F8011091F9015D
:102D3000811107C0C11165C0D11163C0111161C0FB
:102D400064C02F3F19F02F5F2093F401181624F46C
:102D50000E94F5148093F6018091F60187FF05C06B
:102D60000E94F51481958093F6011C1624F40E94AC
:102D7000F5148093F7018091F70187FF05C00E9449
:102D8000F51481958093F7018091F6018823B1F0C5
:102D90002091F701222391F0082E000C990B65EB8E
:102DA00070E00E94FC1D9093F601822F220F990B78
:102DB00065EB70E00E94FC1D9093F7011D1624F452
:102DC0000E9440158093F8018091F80187FF05C0AB
:102DD0000E94401581958093F801111624F40E94F9
:102DE00040158093F9018091F90187FF05C00E9489
:102DF000401581958093F901DF91CF911F910C943B
:102E000068162F3F09F09FCFB0CFDF91CF911F9170
:102E10000895E5EFF1E085E0DF011D928A95E9F77D
:102E20001092F4011092F301089580911A0208950E
:102E30000F931F93CF93DF9300D01F92CDB7DEB7D0
:102E40008C010E947919823011F0843019F583E0E9
:102E500089831B830A838093E9008FEF9091E800B8
:102E6000815095FD06C095ED9A95F1F7000081110E
:102E7000F5CF8091E80085FF0DC040E050E063E0B1
:102E800070E0CE0101960E9496198091E8008E773D
:102E90008093E8000F900F900F90DF91CF911F91DA
:102EA0000F910895CF93DF9300D01F92CDB7DEB777
:102EB00020912902243031F522E02983805891099C
:102EC0009B838A8383E08093E9008FEF9091E800F1
:102ED000815095FD06C095ED9A95F1F7000081119E
:102EE000F5CF8091E80085FF0DC040E050E063E041
:102EF00070E0CE0101960E9496198091E8008E77CD
:102F00008093E8000F900F900F90DF91CF9108957C
:102F1000CF93DF93EC010E947919823011F0843055
:102F2000F9F482E08093E9008FEF9091E8008150FE
:102F300095FD06C095ED9A95F1F700008111F5CF4A
:102F40008091E80085FF0CC040E050E065E070E053
:102F5000CE010E9496198091E8008E778093E80058
:102F6000DF91CF910895CF93DF93EC010E947919FF
:102F7000823019F0843009F047C080911201882313
:102F8000E1F08091230287FF18C084E08093E9007C
:102F90008FEF9091E800815095FD06C095E19A95DC
:102FA000F1F700008111F5CF8091E80085FF2CC07A
:102FB00040E050E060E270E017C081E08093E900FB
:102FC0008FEF9091E800815095FD06C095ED9A95A0
:102FD000F1F700008111F5CF8091E80085FF14C062
:102FE00040E050E068E070E0CE010E9496198091C8
:102FF000E8008E778093E80080E2FE01AAEFB1E05E
:1030000001900D928A95E1F7DF91CF91089508958F
:1030100008950C94371442E061EC81E00E949A1A02
:1030200042E061EC82E00E949A1A42E061EC83E0A7
:103030000E949A1A42E261EC84E00C949A1A809100
:103040002B02833009F455C030F4813071F08230A6
:1030500009F48EC008958A3009F47AC08B3009F4DF
:1030600060C0893009F09CC020C080912A02813A5A
:1030700009F096C08091E800877F8093E8008091F6
:103080002E0290912F02892B21F460E28AEF91E0C9
:1030900003C060E080E090E070E00E94E119809160
:1030A000E8008B778093E800089580912A028132AE
:1030B00009F076C080912E0290912F02009719F0AE
:1030C000039709F06DC08091E800877F8093E80046
:1030D0008091E80082FD05C0809129028111F8CF1E
:1030E0005FC08091F10080931A028091E8008B7795
:1030F00053C080912A02813A09F052C080912E0279
:1031000090912F02892B09F04BC08091E800877FB6
:103110008093E8008091E80080FFFCCF809112014D
:1031200036C080912A028132D9F580912E02909189
:103130002F02892BA9F58091E800877F8093E80012
:103140000E94CF1A80912C02809312010C94620C81
:1031500080912A02813221F58091E800877F809357
:10316000E8000E94CF1A80912D0280931B020895DF
:1031700080912A02813AA1F48091E800877F8093B0
:10318000E8008091E80080FFFCCF80911B028093D3
:10319000F1008091E8008E778093E8000C94CF1ABC
:1031A000089584B7877F84BF0FB6F894A89580915F
:1031B0006000886180936000109260000FBE80E81C
:1031C00080936100109261000E94E2070E94211B1F
:1031D0000E94741B8091E20084608093E2007894E6
:1031E0000E94D81D0E94E60788E091E00E948E07A9
:1031F00080912902853069F40E94F313809127029F
:103200008823B1F30E942214882391F30E9480192D
:10321000EFCF0E94EC07ECCF292F33272330310565
:10322000C9F060F42130310581F02230310509F018
:1032300047C08DE690E022E833E046C021323105F8
:1032400011F12232310561F13BC082E190E02FEEB5
:1032500033E03AC099278130910561F040F0823027
:10326000910559F0039761F5E2E4F3E008C0EEE759
:10327000F3E005C0EEE5F3E002C0E8E4F3E084919A
:1032800090E09F0121C064307105D0F4660F771F74
:10329000FB01E15EFE4F2081318189E090E014C0A6
:1032A0006430710568F4FB01EE0FFF1FE95EFE4F0D
:1032B00020813181FB01ED5EFE4F808190E004C0F2
:1032C00080E090E020E030E0FA013183208308952F
:1032D0000895CF93C82F0E946819C0931C02CF9104
:1032E000089580912902843011F081E0089582E0F0
:1032F000089580911C02811102C00C9471190895E7
:1033000084E089BD86E089BD09B400FEFDCF8091CF
:10331000D8008F7D8093D8008091E00082608093F8
:10332000E0008091E00081FDFCCF0895CF92DF9214
:10333000EF92FF920F931F93CF93DF93EC018B01DA
:103340007A010E94EE1A811133C0E114F10439F0C0
:10335000F70180819181081B190BC80FD91FC12C5F
:10336000D12C0115110519F18091E80085FD16C0D9
:103370008091E8008E778093E800E114F10449F031
:10338000F70180819181C80ED91ED182C08285E06B
:103390000FC00E94EE1A882321F30AC089918093FE
:1033A000F10001501109FFEFCF1ADF0ADACF80E0F8
:1033B000DF91CF911F910F91FF90EF90DF90CF9011
:1033C000089520913002309131022617370748F0D6
:1033D0006115710539F42091E8002E772093E800FB
:1033E00001C0B901FC0120E06115710561F1809116
:1033F00029028823D9F18530D9F18091E80083FD35
:1034000039C08091E80082FD2BC08091E80080FFE8
:10341000EBCF8091F20090E06115710551F088309A
:10342000910538F421912093F100615071090196C2
:10343000F3CF21E0089709F020E08091E8008E7733
:103440008093E800D1CF2111D2CF0AC08091290208
:10345000882361F0853061F08091E80083FD0AC027
:103460008091E80082FFF2CF80E0089582E0089525
:1034700083E0089581E00895209130023091310277
:103480002617370748F06115710539F42091E800D7
:103490002E772093E80001C0B901FC0120E06115FE
:1034A000710579F180912902882309F43DC08530A6
:1034B00009F43CC08091E80083FD3AC08091E800A7
:1034C00082FD2CC08091E80080FFE9CF8091F2005E
:1034D00090E06115710559F08830910540F4249110
:1034E0002093F1003196615071090196F2CF21E0ED
:1034F000089709F020E08091E8008E778093E8003B
:10350000CECF2111CFCF0AC080912902882361F04C
:10351000853061F08091E80083FD0AC08091E80069
:1035200082FFF2CF80E0089582E0089583E008955D
:1035300081E00895982F953068F59093E9009817E9
:1035400039F07091EC002091ED005091F00003C033
:10355000242F762F50E021FD02C09F5FECCF3091E9
:10356000EB003E7F3093EB003091ED003D7F3093D8
:10357000ED003091EB0031603093EB007093EC0084
:103580002093ED005093F0002091EE0027FDE5CF51
:1035900080E008958F708093E90081E00895809124
:1035A0002A0287FF11C08091E80082FD05C080914A
:1035B00029028111F8CF11C08091E8008B770BC0F0
:1035C00080912902882349F08091E80080FFF8CF9C
:1035D0008091E8008E778093E80008952091E400C0
:1035E0003091E50095E64091EC00842F817040FF1A
:1035F00023C08091E80080FD1DC0809129028823AE
:1036000099F0853099F08091EB0085FD11C04091D3
:10361000E4005091E5002417350729F3915011F08B
:103620009A01E1CF84E0089582E0089583E008954F
:1036300081E0089580E008954091E80042FFDDCFE9
:1036400008950E947E1B0E94811BE0EEF0E08081C5
:1036500081608083E8EDF0E080818F77808319BC02
:10366000E3E6F0E080818160808310922802089573
:103670000E947E1B0E94811B8091D8008F778093CF
:10368000D8008091D80080688093D8008091D800BD
:103690008F7D8093D80084E089BD86E089BD09B420
:1036A00000FEFDCF109229021092250210922702EF
:1036B0001092260242E060E080E00E949A1A809117
:1036C000E1008E7F8093E1008091E2008160809331
:1036D000E2008091E20088608093E2008091E00047
:1036E0008E7F8093E0000895E3E6F0E080818E7F96
:1036F000808381E0809328020C94381B1092E200B2
:1037000008951092E10008951F920F920FB60F9244
:1037100011242F933F934F935F936F937F938F93D6
:103720009F93AF93BF93EF93FF938091E10082FF4C
:103730000BC08091E20082FF07C08091E1008B7F87
:103740008093E1000E94D71D8091E10080FF19C0A5
:103750008091E20080FF15C08091E2008E7F80930F
:10376000E2008091E20080618093E2008091D800C5
:1037700080628093D80019BC85E0809329020E9462
:1037800008188091E10084FF30C08091E20084FF3E
:103790002CC084E089BD86E089BD09B400FEFDCF60
:1037A0008091D8008F7D8093D8008091E1008F7E3A
:1037B0008093E1008091E2008F7E8093E20080910F
:1037C000E20081608093E20080912502882311F05D
:1037D00084E007C08091E30087FD02C081E001C062
:1037E00083E0809329020E9409188091E10083FF01
:1037F00029C08091E20083FF25C08091E100877F8E
:103800008093E10082E0809329021092250280914A
:10381000E1008E7F8093E1008091E2008E7F8093B3
:10382000E2008091E20080618093E20042E060E08B
:1038300080E00E949A1A8091F00088608093F000E6
:103840000E940718FF91EF91BF91AF919F918F91C7
:103850007F916F915F914F913F912F910F900FBE8C
:103860000F901F9018951F920F920FB60F92112470
:103870002F933F934F935F936F937F938F939F9378
:10388000AF93BF93CF93DF93EF93FF93C091E90082
:10389000CF708091EC00D82FD17080FDD0E81092CD
:1038A000E9008091F000877F8093F00078940E9477
:1038B000771C1092E9008091F00088608093F000FE
:1038C000CD2BCF70C093E900FF91EF91DF91CF91A5
:1038D000BF91AF919F918F917F916F915F914F9128
:1038E0003F912F910F900FBE0F901F9018951F932F
:1038F000CF93DF93CDB7DEB7AA970FB6F894DEBFAC
:103900000FBECDBFEAE2F2E08091F100819322E0A8
:10391000E233F207C9F70E941F188091E80083FF85
:103920002EC180912A0290912B02492F50E04A30FB
:10393000510508F024C1FA01E158FF4F0C94211EF3
:10394000803821F0823809F01AC108C0809126021F
:1039500090912702992389F082600FC080912E02F6
:103960008F70853008F00BC18093E9008091EB00E7
:1039700085FB882780F91092E9009091E800977FF5
:103980009093E8008093F1001092F100D1C0282FAD
:103990002D7F09F0F4C0882319F0823061F0EFC068
:1039A00080912C02813009F0EAC0933009F080E068
:1039B000809327022EC080912C0281112AC0809111
:1039C0002E028F702FEF280F243008F0D8C080937C
:1039D000E9002091EB0020FF1CC0933021F480917E
:1039E000EB00806214C09091EB0090619093EB002B
:1039F00021E030E0A90102C0440F551F8A95E2F78B
:103A00004093EA001092EA008091EB008860809376
:103A1000EB001092E9008091E800877F8093E80036
:103A20000E94CF1AACC08111AAC010912C021F773E
:103A30008091E3008078812B8093E3008091E800FF
:103A4000877F8093E8000E94CF1A8091E80080FF72
:103A5000FCCF8091E30080688093E300111102C0E5
:103A600082E001C083E08093290289C080588230BF
:103A700008F085C080912C0290912D028C3D53E07E
:103A8000950779F583E08A838AE289834FB7F894B2
:103A9000DE01139620E03EE051E2E32FF0E0509388
:103AA0005700E49120FF03C0E295EF703F5FEF7095
:103AB0008E2F90E0EA3010F0C79601C0C0968D932B
:103AC0009D932F5F243149F74FBF8091E800877F96
:103AD0008093E8006AE270E0CE0101960E94E1194D
:103AE00016C060912E0270912F02AE014F5F5F4FA2
:103AF0000E940C19BC01892B09F441C09091E80087
:103B0000977F9093E80089819A810E943C1A809166
:103B1000E8008B778093E80032C0803881F580918F
:103B2000E800877F8093E800809125028093F10070
:103B30008091E8008E7772CF811121C080912C0294
:103B400090912D0299270297D4F48091E800877F05
:103B50008093E80080912C02809325020E94CF1A66
:103B600080912502811106C08091E30087FD02C08B
:103B700081E001C084E0809329020E940B188091AB
:103B8000E80083FF0AC08091E800877F8093E80007
:103B90008091EB0080628093EB00AA960FB6F894B8
:103BA000DEBF0FBECDBFDF91CF911F910895089565
:103BB000CF93809129028823A1F0C091E900CF70B2
:103BC0009091EC00892F817090FD80E8C82B1092B5
:103BD000E9008091E80083FD0E94771CCF70C093BC
:103BE000E900CF910895002480FD060E660F11F0C4
:103BF0008695D1F7802D08950024552704C0080E1E
:103C0000591F880F991F009729F076956795B8F38B
:103C10007105B9F7802D952F089597FB072E16F49F
:103C2000009407D077FD09D00E94271E07FC05D01D
:103C30003EF4909581959F4F0895709561957F4FC3
:103C40000895EE0FFF1F0590F491E02D0994AA1B33
:103C5000BB1B51E107C0AA1FBB1FA617B70710F077
:103C6000A61BB70B881F991F5A95A9F780959095A9
:103C7000BC01CD010895F999FECF92BD81BDF89A9E
:103C8000992780B50895A8E1B0E042E050E00C9497
:103C9000631E262FF999FECF92BD81BDF89A019738
:103CA00000B4021639F01FBA20BD0FB6F894FA9A84
:103CB000F99A0FBE08950196272F0E944A1E0C9470
:103CC000491EDC01CB01FC01F999FECF06C0F2BD13
:103CD000E1BDF89A319600B40D9241505040B8F7CA
:063CE0000895F894FFCFE7
:103CE600CC012808140A321E1517B3178817521765
:103CF600181701404D3639BD0470043A0401049486
:083D060003AD03C603DF030057
:00000001FF
